{
  "contractName": "GamingAssetOwnership",
  "abi": [
    {
      "inputs": [],
      "stateMutability": "nonpayable",
      "type": "constructor"
    },
    {
      "anonymous": false,
      "inputs": [
        {
          "indexed": true,
          "internalType": "address",
          "name": "account",
          "type": "address"
        },
        {
          "indexed": true,
          "internalType": "address",
          "name": "operator",
          "type": "address"
        },
        {
          "indexed": false,
          "internalType": "bool",
          "name": "approved",
          "type": "bool"
        }
      ],
      "name": "ApprovalForAll",
      "type": "event"
    },
    {
      "anonymous": false,
      "inputs": [
        {
          "indexed": true,
          "internalType": "address",
          "name": "previousOwner",
          "type": "address"
        },
        {
          "indexed": true,
          "internalType": "address",
          "name": "newOwner",
          "type": "address"
        }
      ],
      "name": "OwnershipTransferred",
      "type": "event"
    },
    {
      "anonymous": false,
      "inputs": [
        {
          "indexed": true,
          "internalType": "address",
          "name": "operator",
          "type": "address"
        },
        {
          "indexed": true,
          "internalType": "address",
          "name": "from",
          "type": "address"
        },
        {
          "indexed": true,
          "internalType": "address",
          "name": "to",
          "type": "address"
        },
        {
          "indexed": false,
          "internalType": "uint256[]",
          "name": "ids",
          "type": "uint256[]"
        },
        {
          "indexed": false,
          "internalType": "uint256[]",
          "name": "values",
          "type": "uint256[]"
        }
      ],
      "name": "TransferBatch",
      "type": "event"
    },
    {
      "anonymous": false,
      "inputs": [
        {
          "indexed": true,
          "internalType": "address",
          "name": "operator",
          "type": "address"
        },
        {
          "indexed": true,
          "internalType": "address",
          "name": "from",
          "type": "address"
        },
        {
          "indexed": true,
          "internalType": "address",
          "name": "to",
          "type": "address"
        },
        {
          "indexed": false,
          "internalType": "uint256",
          "name": "id",
          "type": "uint256"
        },
        {
          "indexed": false,
          "internalType": "uint256",
          "name": "value",
          "type": "uint256"
        }
      ],
      "name": "TransferSingle",
      "type": "event"
    },
    {
      "anonymous": false,
      "inputs": [
        {
          "indexed": false,
          "internalType": "string",
          "name": "value",
          "type": "string"
        },
        {
          "indexed": true,
          "internalType": "uint256",
          "name": "id",
          "type": "uint256"
        }
      ],
      "name": "URI",
      "type": "event"
    },
    {
      "inputs": [],
      "name": "BRONZE",
      "outputs": [
        {
          "internalType": "uint256",
          "name": "",
          "type": "uint256"
        }
      ],
      "stateMutability": "view",
      "type": "function"
    },
    {
      "inputs": [],
      "name": "GOLD",
      "outputs": [
        {
          "internalType": "uint256",
          "name": "",
          "type": "uint256"
        }
      ],
      "stateMutability": "view",
      "type": "function"
    },
    {
      "inputs": [],
      "name": "SILVER",
      "outputs": [
        {
          "internalType": "uint256",
          "name": "",
          "type": "uint256"
        }
      ],
      "stateMutability": "view",
      "type": "function"
    },
    {
      "inputs": [
        {
          "internalType": "address",
          "name": "account",
          "type": "address"
        },
        {
          "internalType": "uint256",
          "name": "id",
          "type": "uint256"
        }
      ],
      "name": "balanceOf",
      "outputs": [
        {
          "internalType": "uint256",
          "name": "",
          "type": "uint256"
        }
      ],
      "stateMutability": "view",
      "type": "function"
    },
    {
      "inputs": [
        {
          "internalType": "address[]",
          "name": "accounts",
          "type": "address[]"
        },
        {
          "internalType": "uint256[]",
          "name": "ids",
          "type": "uint256[]"
        }
      ],
      "name": "balanceOfBatch",
      "outputs": [
        {
          "internalType": "uint256[]",
          "name": "",
          "type": "uint256[]"
        }
      ],
      "stateMutability": "view",
      "type": "function"
    },
    {
      "inputs": [
        {
          "internalType": "address",
          "name": "account",
          "type": "address"
        },
        {
          "internalType": "address",
          "name": "operator",
          "type": "address"
        }
      ],
      "name": "isApprovedForAll",
      "outputs": [
        {
          "internalType": "bool",
          "name": "",
          "type": "bool"
        }
      ],
      "stateMutability": "view",
      "type": "function"
    },
    {
      "inputs": [],
      "name": "owner",
      "outputs": [
        {
          "internalType": "address",
          "name": "",
          "type": "address"
        }
      ],
      "stateMutability": "view",
      "type": "function"
    },
    {
      "inputs": [],
      "name": "renounceOwnership",
      "outputs": [],
      "stateMutability": "nonpayable",
      "type": "function"
    },
    {
      "inputs": [
        {
          "internalType": "address",
          "name": "from",
          "type": "address"
        },
        {
          "internalType": "address",
          "name": "to",
          "type": "address"
        },
        {
          "internalType": "uint256[]",
          "name": "ids",
          "type": "uint256[]"
        },
        {
          "internalType": "uint256[]",
          "name": "amounts",
          "type": "uint256[]"
        },
        {
          "internalType": "bytes",
          "name": "data",
          "type": "bytes"
        }
      ],
      "name": "safeBatchTransferFrom",
      "outputs": [],
      "stateMutability": "nonpayable",
      "type": "function"
    },
    {
      "inputs": [
        {
          "internalType": "address",
          "name": "from",
          "type": "address"
        },
        {
          "internalType": "address",
          "name": "to",
          "type": "address"
        },
        {
          "internalType": "uint256",
          "name": "id",
          "type": "uint256"
        },
        {
          "internalType": "uint256",
          "name": "amount",
          "type": "uint256"
        },
        {
          "internalType": "bytes",
          "name": "data",
          "type": "bytes"
        }
      ],
      "name": "safeTransferFrom",
      "outputs": [],
      "stateMutability": "nonpayable",
      "type": "function"
    },
    {
      "inputs": [
        {
          "internalType": "address",
          "name": "operator",
          "type": "address"
        },
        {
          "internalType": "bool",
          "name": "approved",
          "type": "bool"
        }
      ],
      "name": "setApprovalForAll",
      "outputs": [],
      "stateMutability": "nonpayable",
      "type": "function"
    },
    {
      "inputs": [
        {
          "internalType": "bytes4",
          "name": "interfaceId",
          "type": "bytes4"
        }
      ],
      "name": "supportsInterface",
      "outputs": [
        {
          "internalType": "bool",
          "name": "",
          "type": "bool"
        }
      ],
      "stateMutability": "view",
      "type": "function"
    },
    {
      "inputs": [
        {
          "internalType": "address",
          "name": "newOwner",
          "type": "address"
        }
      ],
      "name": "transferOwnership",
      "outputs": [],
      "stateMutability": "nonpayable",
      "type": "function"
    },
    {
      "inputs": [
        {
          "internalType": "uint256",
          "name": "",
          "type": "uint256"
        }
      ],
      "name": "uri",
      "outputs": [
        {
          "internalType": "string",
          "name": "",
          "type": "string"
        }
      ],
      "stateMutability": "view",
      "type": "function"
    },
    {
      "inputs": [
        {
          "internalType": "address",
          "name": "account",
          "type": "address"
        },
        {
          "internalType": "uint256",
          "name": "id",
          "type": "uint256"
        },
        {
          "internalType": "uint256",
          "name": "amount",
          "type": "uint256"
        },
        {
          "internalType": "bytes",
          "name": "data",
          "type": "bytes"
        }
      ],
      "name": "mint",
      "outputs": [],
      "stateMutability": "nonpayable",
      "type": "function"
    },
    {
      "inputs": [
        {
          "internalType": "address",
          "name": "account",
          "type": "address"
        },
        {
          "internalType": "uint256",
          "name": "id",
          "type": "uint256"
        },
        {
          "internalType": "uint256",
          "name": "amount",
          "type": "uint256"
        }
      ],
      "name": "burn",
      "outputs": [],
      "stateMutability": "nonpayable",
      "type": "function"
    }
  ],
  "bytecode": "0x60806040523480156200001157600080fd5b5060405180606001604052806023815260200162004136602391396200003d81620000f360201b60201c565b506200005e620000526200010860201b60201c565b6200011060201b60201c565b6200008a336000670de0b6b3a764000060405180602001604052806000815250620001d660201b60201c565b620000ba3360016b033b2e3c9fd0803ce800000060405180602001604052806000815250620001d660201b60201c565b620000ed3360026ec097ce7bc90715b34b9f100000000060405180602001604052806000815250620001d660201b60201c565b62000fc4565b8060029081620001049190620008e4565b5050565b600033905090565b6000600360009054906101000a900473ffffffffffffffffffffffffffffffffffffffff16905081600360006101000a81548173ffffffffffffffffffffffffffffffffffffffff021916908373ffffffffffffffffffffffffffffffffffffffff1602179055508173ffffffffffffffffffffffffffffffffffffffff168173ffffffffffffffffffffffffffffffffffffffff167f8be0079c531659141344cd1fd0a4f28419497f9722a3daafe3b4186f6b6457e060405160405180910390a35050565b600073ffffffffffffffffffffffffffffffffffffffff168473ffffffffffffffffffffffffffffffffffffffff160362000248576040517f08c379a00000000000000000000000000000000000000000000000000000000081526004016200023f9062000a52565b60405180910390fd5b60006200025a6200010860201b60201c565b905060006200026f85620003bd60201b60201c565b905060006200028485620003bd60201b60201c565b90506200029d836000898585896200043e60201b60201c565b8460008088815260200190815260200160002060008973ffffffffffffffffffffffffffffffffffffffff1673ffffffffffffffffffffffffffffffffffffffff1681526020019081526020016000206000828254620002fe919062000aa3565b925050819055508673ffffffffffffffffffffffffffffffffffffffff16600073ffffffffffffffffffffffffffffffffffffffff168473ffffffffffffffffffffffffffffffffffffffff167fc3d58168c5ae7397731d063d5bbf3d657854427343f4c083240f7aacaa2d0f6289896040516200037e92919062000aef565b60405180910390a46200039d836000898585896200044660201b60201c565b620003b4836000898989896200044e60201b60201c565b50505050505050565b60606000600167ffffffffffffffff811115620003df57620003de62000675565b5b6040519080825280602002602001820160405280156200040e5781602001602082028036833780820191505090505b509050828160008151811062000429576200042862000b1c565b5b60200260200101818152505080915050919050565b505050505050565b505050505050565b6200047a8473ffffffffffffffffffffffffffffffffffffffff166200064760201b62000a061760201c565b156200063f578373ffffffffffffffffffffffffffffffffffffffff1663f23a6e6187878686866040518663ffffffff1660e01b8152600401620004c395949392919062000c2a565b6020604051808303816000875af19250505080156200050257506040513d601f19601f82011682018060405250810190620004ff919062000cfa565b60015b620005b3576200051162000d39565b806308c379a0036200057457506200052862000d94565b8062000535575062000576565b806040517f08c379a00000000000000000000000000000000000000000000000000000000081526004016200056b919062000e70565b60405180910390fd5b505b6040517f08c379a0000000000000000000000000000000000000000000000000000000008152600401620005aa9062000f0a565b60405180910390fd5b63f23a6e6160e01b7bffffffffffffffffffffffffffffffffffffffffffffffffffffffff1916817bffffffffffffffffffffffffffffffffffffffffffffffffffffffff1916146200063d576040517f08c379a0000000000000000000000000000000000000000000000000000000008152600401620006349062000fa2565b60405180910390fd5b505b505050505050565b6000808273ffffffffffffffffffffffffffffffffffffffff163b119050919050565b600081519050919050565b7f4e487b7100000000000000000000000000000000000000000000000000000000600052604160045260246000fd5b7f4e487b7100000000000000000000000000000000000000000000000000000000600052602260045260246000fd5b60006002820490506001821680620006ec57607f821691505b602082108103620007025762000701620006a4565b5b50919050565b60008190508160005260206000209050919050565b60006020601f8301049050919050565b600082821b905092915050565b6000600883026200076c7fffffffffffffffffffffffffffffffffffffffffffffffffffffffffffffffff826200072d565b6200077886836200072d565b95508019841693508086168417925050509392505050565b6000819050919050565b6000819050919050565b6000620007c5620007bf620007b98462000790565b6200079a565b62000790565b9050919050565b6000819050919050565b620007e183620007a4565b620007f9620007f082620007cc565b8484546200073a565b825550505050565b600090565b6200081062000801565b6200081d818484620007d6565b505050565b5b8181101562000845576200083960008262000806565b60018101905062000823565b5050565b601f82111562000894576200085e8162000708565b62000869846200071d565b8101602085101562000879578190505b6200089162000888856200071d565b83018262000822565b50505b505050565b600082821c905092915050565b6000620008b96000198460080262000899565b1980831691505092915050565b6000620008d48383620008a6565b9150826002028217905092915050565b620008ef826200066a565b67ffffffffffffffff8111156200090b576200090a62000675565b5b620009178254620006d3565b6200092482828562000849565b600060209050601f8311600181146200095c576000841562000947578287015190505b620009538582620008c6565b865550620009c3565b601f1984166200096c8662000708565b60005b8281101562000996578489015182556001820191506020850194506020810190506200096f565b86831015620009b65784890151620009b2601f891682620008a6565b8355505b6001600288020188555050505b505050505050565b600082825260208201905092915050565b7f455243313135353a206d696e7420746f20746865207a65726f2061646472657360008201527f7300000000000000000000000000000000000000000000000000000000000000602082015250565b600062000a3a602183620009cb565b915062000a4782620009dc565b604082019050919050565b6000602082019050818103600083015262000a6d8162000a2b565b9050919050565b7f4e487b7100000000000000000000000000000000000000000000000000000000600052601160045260246000fd5b600062000ab08262000790565b915062000abd8362000790565b925082820190508082111562000ad85762000ad762000a74565b5b92915050565b62000ae98162000790565b82525050565b600060408201905062000b06600083018562000ade565b62000b15602083018462000ade565b9392505050565b7f4e487b7100000000000000000000000000000000000000000000000000000000600052603260045260246000fd5b600073ffffffffffffffffffffffffffffffffffffffff82169050919050565b600062000b788262000b4b565b9050919050565b62000b8a8162000b6b565b82525050565b600081519050919050565b600082825260208201905092915050565b60005b8381101562000bcc57808201518184015260208101905062000baf565b60008484015250505050565b6000601f19601f8301169050919050565b600062000bf68262000b90565b62000c02818562000b9b565b935062000c1481856020860162000bac565b62000c1f8162000bd8565b840191505092915050565b600060a08201905062000c41600083018862000b7f565b62000c50602083018762000b7f565b62000c5f604083018662000ade565b62000c6e606083018562000ade565b818103608083015262000c82818462000be9565b90509695505050505050565b6000604051905090565b600080fd5b60007fffffffff0000000000000000000000000000000000000000000000000000000082169050919050565b62000cd48162000c9d565b811462000ce057600080fd5b50565b60008151905062000cf48162000cc9565b92915050565b60006020828403121562000d135762000d1262000c98565b5b600062000d238482850162000ce3565b91505092915050565b60008160e01c9050919050565b600060033d111562000d5b5760046000803e62000d5860005162000d2c565b90505b90565b62000d698262000bd8565b810181811067ffffffffffffffff8211171562000d8b5762000d8a62000675565b5b80604052505050565b600060443d1062000e2c5762000da962000c8e565b60043d036004823e80513d602482011167ffffffffffffffff8211171562000dd357505062000e2c565b808201805167ffffffffffffffff81111562000df3575050505062000e2c565b80602083010160043d03850181111562000e1257505050505062000e2c565b62000e238260200185018662000d5e565b82955050505050505b90565b600062000e3c826200066a565b62000e488185620009cb565b935062000e5a81856020860162000bac565b62000e658162000bd8565b840191505092915050565b6000602082019050818103600083015262000e8c818462000e2f565b905092915050565b7f455243313135353a207472616e7366657220746f206e6f6e2d4552433131353560008201527f526563656976657220696d706c656d656e746572000000000000000000000000602082015250565b600062000ef2603483620009cb565b915062000eff8262000e94565b604082019050919050565b6000602082019050818103600083015262000f258162000ee3565b9050919050565b7f455243313135353a204552433131353552656365697665722072656a6563746560008201527f6420746f6b656e73000000000000000000000000000000000000000000000000602082015250565b600062000f8a602883620009cb565b915062000f978262000f2c565b604082019050919050565b6000602082019050818103600083015262000fbd8162000f7b565b9050919050565b6131628062000fd46000396000f3fe608060405234801561001057600080fd5b50600436106100ff5760003560e01c80638da5cb5b11610097578063e985e9c511610066578063e985e9c51461029a578063f242432a146102ca578063f2fde38b146102e6578063f5298aca14610302576100ff565b80638da5cb5b14610224578063a22cb46514610242578063e00fd5431461025e578063e3e55f081461027c576100ff565b80633e4bee38116100d35780633e4bee38146101b05780634e1273f4146101ce578063715018a6146101fe578063731133e914610208576100ff565b8062fdd58e1461010457806301ffc9a7146101345780630e89341c146101645780632eb2c2d614610194575b600080fd5b61011e60048036038101906101199190611bdd565b61031e565b60405161012b9190611c2c565b60405180910390f35b61014e60048036038101906101499190611c9f565b6103e6565b60405161015b9190611ce7565b60405180910390f35b61017e60048036038101906101799190611d02565b6104c8565b60405161018b9190611dbf565b60405180910390f35b6101ae60048036038101906101a99190611fde565b61055c565b005b6101b86105fd565b6040516101c59190611c2c565b60405180910390f35b6101e860048036038101906101e39190612170565b610602565b6040516101f591906122a6565b60405180910390f35b61020661071b565b005b610222600480360381019061021d91906122c8565b61072f565b005b61022c610749565b604051610239919061235a565b60405180910390f35b61025c600480360381019061025791906123a1565b610773565b005b610266610789565b6040516102739190611c2c565b60405180910390f35b61028461078e565b6040516102919190611c2c565b60405180910390f35b6102b460048036038101906102af91906123e1565b610793565b6040516102c19190611ce7565b60405180910390f35b6102e460048036038101906102df9190612421565b610827565b005b61030060048036038101906102fb91906124b8565b6108c8565b005b61031c600480360381019061031791906124e5565b61094b565b005b60008073ffffffffffffffffffffffffffffffffffffffff168373ffffffffffffffffffffffffffffffffffffffff160361038e576040517f08c379a0000000000000000000000000000000000000000000000000000000008152600401610385906125aa565b60405180910390fd5b60008083815260200190815260200160002060008473ffffffffffffffffffffffffffffffffffffffff1673ffffffffffffffffffffffffffffffffffffffff16815260200190815260200160002054905092915050565b60007fd9b67a26000000000000000000000000000000000000000000000000000000007bffffffffffffffffffffffffffffffffffffffffffffffffffffffff1916827bffffffffffffffffffffffffffffffffffffffffffffffffffffffff191614806104b157507f0e89341c000000000000000000000000000000000000000000000000000000007bffffffffffffffffffffffffffffffffffffffffffffffffffffffff1916827bffffffffffffffffffffffffffffffffffffffffffffffffffffffff1916145b806104c157506104c082610a29565b5b9050919050565b6060600280546104d7906125f9565b80601f0160208091040260200160405190810160405280929190818152602001828054610503906125f9565b80156105505780601f1061052557610100808354040283529160200191610550565b820191906000526020600020905b81548152906001019060200180831161053357829003601f168201915b50505050509050919050565b610564610a93565b73ffffffffffffffffffffffffffffffffffffffff168573ffffffffffffffffffffffffffffffffffffffff1614806105aa57506105a9856105a4610a93565b610793565b5b6105e9576040517f08c379a00000000000000000000000000000000000000000000000000000000081526004016105e09061269c565b60405180910390fd5b6105f68585858585610a9b565b5050505050565b600081565b60608151835114610648576040517f08c379a000000000000000000000000000000000000000000000000000000000815260040161063f9061272e565b60405180910390fd5b6000835167ffffffffffffffff81111561066557610664611de6565b5b6040519080825280602002602001820160405280156106935781602001602082028036833780820191505090505b50905060005b8451811015610710576106e08582815181106106b8576106b761274e565b5b60200260200101518583815181106106d3576106d261274e565b5b602002602001015161031e565b8282815181106106f3576106f261274e565b5b60200260200101818152505080610709906127ac565b9050610699565b508091505092915050565b610723610dbc565b61072d6000610e3a565b565b610737610dbc565b61074384848484610f00565b50505050565b6000600360009054906101000a900473ffffffffffffffffffffffffffffffffffffffff16905090565b61078561077e610a93565b83836110b0565b5050565b600281565b600181565b6000600160008473ffffffffffffffffffffffffffffffffffffffff1673ffffffffffffffffffffffffffffffffffffffff16815260200190815260200160002060008373ffffffffffffffffffffffffffffffffffffffff1673ffffffffffffffffffffffffffffffffffffffff16815260200190815260200160002060009054906101000a900460ff16905092915050565b61082f610a93565b73ffffffffffffffffffffffffffffffffffffffff168573ffffffffffffffffffffffffffffffffffffffff16148061087557506108748561086f610a93565b610793565b5b6108b4576040517f08c379a00000000000000000000000000000000000000000000000000000000081526004016108ab9061269c565b60405180910390fd5b6108c1858585858561121c565b5050505050565b6108d0610dbc565b600073ffffffffffffffffffffffffffffffffffffffff168173ffffffffffffffffffffffffffffffffffffffff160361093f576040517f08c379a000000000000000000000000000000000000000000000000000000000815260040161093690612866565b60405180910390fd5b61094881610e3a565b50565b8273ffffffffffffffffffffffffffffffffffffffff163373ffffffffffffffffffffffffffffffffffffffff1614806109b75750610988610749565b73ffffffffffffffffffffffffffffffffffffffff163373ffffffffffffffffffffffffffffffffffffffff16145b6109f6576040517f08c379a00000000000000000000000000000000000000000000000000000000081526004016109ed906128d2565b60405180910390fd5b610a018383836114b7565b505050565b6000808273ffffffffffffffffffffffffffffffffffffffff163b119050919050565b60007f01ffc9a7000000000000000000000000000000000000000000000000000000007bffffffffffffffffffffffffffffffffffffffffffffffffffffffff1916827bffffffffffffffffffffffffffffffffffffffffffffffffffffffff1916149050919050565b600033905090565b8151835114610adf576040517f08c379a0000000000000000000000000000000000000000000000000000000008152600401610ad690612964565b60405180910390fd5b600073ffffffffffffffffffffffffffffffffffffffff168473ffffffffffffffffffffffffffffffffffffffff1603610b4e576040517f08c379a0000000000000000000000000000000000000000000000000000000008152600401610b45906129f6565b60405180910390fd5b6000610b58610a93565b9050610b688187878787876116fd565b60005b8451811015610d19576000858281518110610b8957610b8861274e565b5b602002602001015190506000858381518110610ba857610ba761274e565b5b60200260200101519050600080600084815260200190815260200160002060008b73ffffffffffffffffffffffffffffffffffffffff1673ffffffffffffffffffffffffffffffffffffffff16815260200190815260200160002054905081811015610c49576040517f08c379a0000000000000000000000000000000000000000000000000000000008152600401610c4090612a88565b60405180910390fd5b81810360008085815260200190815260200160002060008c73ffffffffffffffffffffffffffffffffffffffff1673ffffffffffffffffffffffffffffffffffffffff168152602001908152602001600020819055508160008085815260200190815260200160002060008b73ffffffffffffffffffffffffffffffffffffffff1673ffffffffffffffffffffffffffffffffffffffff1681526020019081526020016000206000828254610cfe9190612aa8565b9250508190555050505080610d12906127ac565b9050610b6b565b508473ffffffffffffffffffffffffffffffffffffffff168673ffffffffffffffffffffffffffffffffffffffff168273ffffffffffffffffffffffffffffffffffffffff167f4a39dc06d4c0dbc64b70af90fd698a233a518aa5d07e595d983b8c0526c8f7fb8787604051610d90929190612adc565b60405180910390a4610da6818787878787611705565b610db481878787878761170d565b505050505050565b610dc4610a93565b73ffffffffffffffffffffffffffffffffffffffff16610de2610749565b73ffffffffffffffffffffffffffffffffffffffff1614610e38576040517f08c379a0000000000000000000000000000000000000000000000000000000008152600401610e2f90612b5f565b60405180910390fd5b565b6000600360009054906101000a900473ffffffffffffffffffffffffffffffffffffffff16905081600360006101000a81548173ffffffffffffffffffffffffffffffffffffffff021916908373ffffffffffffffffffffffffffffffffffffffff1602179055508173ffffffffffffffffffffffffffffffffffffffff168173ffffffffffffffffffffffffffffffffffffffff167f8be0079c531659141344cd1fd0a4f28419497f9722a3daafe3b4186f6b6457e060405160405180910390a35050565b600073ffffffffffffffffffffffffffffffffffffffff168473ffffffffffffffffffffffffffffffffffffffff1603610f6f576040517f08c379a0000000000000000000000000000000000000000000000000000000008152600401610f6690612bf1565b60405180910390fd5b6000610f79610a93565b90506000610f86856118e4565b90506000610f93856118e4565b9050610fa4836000898585896116fd565b8460008088815260200190815260200160002060008973ffffffffffffffffffffffffffffffffffffffff1673ffffffffffffffffffffffffffffffffffffffff16815260200190815260200160002060008282546110039190612aa8565b925050819055508673ffffffffffffffffffffffffffffffffffffffff16600073ffffffffffffffffffffffffffffffffffffffff168473ffffffffffffffffffffffffffffffffffffffff167fc3d58168c5ae7397731d063d5bbf3d657854427343f4c083240f7aacaa2d0f628989604051611081929190612c11565b60405180910390a461109883600089858589611705565b6110a78360008989898961195e565b50505050505050565b8173ffffffffffffffffffffffffffffffffffffffff168373ffffffffffffffffffffffffffffffffffffffff160361111e576040517f08c379a000000000000000000000000000000000000000000000000000000000815260040161111590612cac565b60405180910390fd5b80600160008573ffffffffffffffffffffffffffffffffffffffff1673ffffffffffffffffffffffffffffffffffffffff16815260200190815260200160002060008473ffffffffffffffffffffffffffffffffffffffff1673ffffffffffffffffffffffffffffffffffffffff16815260200190815260200160002060006101000a81548160ff0219169083151502179055508173ffffffffffffffffffffffffffffffffffffffff168373ffffffffffffffffffffffffffffffffffffffff167f17307eab39ab6107e8899845ad3d59bd9653f200f220920489ca2b5937696c318360405161120f9190611ce7565b60405180910390a3505050565b600073ffffffffffffffffffffffffffffffffffffffff168473ffffffffffffffffffffffffffffffffffffffff160361128b576040517f08c379a0000000000000000000000000000000000000000000000000000000008152600401611282906129f6565b60405180910390fd5b6000611295610a93565b905060006112a2856118e4565b905060006112af856118e4565b90506112bf8389898585896116fd565b600080600088815260200190815260200160002060008a73ffffffffffffffffffffffffffffffffffffffff1673ffffffffffffffffffffffffffffffffffffffff16815260200190815260200160002054905085811015611356576040517f08c379a000000000000000000000000000000000000000000000000000000000815260040161134d90612a88565b60405180910390fd5b85810360008089815260200190815260200160002060008b73ffffffffffffffffffffffffffffffffffffffff1673ffffffffffffffffffffffffffffffffffffffff168152602001908152602001600020819055508560008089815260200190815260200160002060008a73ffffffffffffffffffffffffffffffffffffffff1673ffffffffffffffffffffffffffffffffffffffff168152602001908152602001600020600082825461140b9190612aa8565b925050819055508773ffffffffffffffffffffffffffffffffffffffff168973ffffffffffffffffffffffffffffffffffffffff168573ffffffffffffffffffffffffffffffffffffffff167fc3d58168c5ae7397731d063d5bbf3d657854427343f4c083240f7aacaa2d0f628a8a604051611488929190612c11565b60405180910390a461149e848a8a86868a611705565b6114ac848a8a8a8a8a61195e565b505050505050505050565b600073ffffffffffffffffffffffffffffffffffffffff168373ffffffffffffffffffffffffffffffffffffffff1603611526576040517f08c379a000000000000000000000000000000000000000000000000000000000815260040161151d90612d3e565b60405180910390fd5b6000611530610a93565b9050600061153d846118e4565b9050600061154a846118e4565b905061156a838760008585604051806020016040528060008152506116fd565b600080600087815260200190815260200160002060008873ffffffffffffffffffffffffffffffffffffffff1673ffffffffffffffffffffffffffffffffffffffff16815260200190815260200160002054905084811015611601576040517f08c379a00000000000000000000000000000000000000000000000000000000081526004016115f890612dd0565b60405180910390fd5b84810360008088815260200190815260200160002060008973ffffffffffffffffffffffffffffffffffffffff1673ffffffffffffffffffffffffffffffffffffffff16815260200190815260200160002081905550600073ffffffffffffffffffffffffffffffffffffffff168773ffffffffffffffffffffffffffffffffffffffff168573ffffffffffffffffffffffffffffffffffffffff167fc3d58168c5ae7397731d063d5bbf3d657854427343f4c083240f7aacaa2d0f6289896040516116ce929190612c11565b60405180910390a46116f484886000868660405180602001604052806000815250611705565b50505050505050565b505050505050565b505050505050565b61172c8473ffffffffffffffffffffffffffffffffffffffff16610a06565b156118dc578373ffffffffffffffffffffffffffffffffffffffff1663bc197c8187878686866040518663ffffffff1660e01b8152600401611772959493929190612e45565b6020604051808303816000875af19250505080156117ae57506040513d601f19601f820116820180604052508101906117ab9190612ec2565b60015b611853576117ba612efc565b806308c379a00361181657506117ce612f1e565b806117d95750611818565b806040517f08c379a000000000000000000000000000000000000000000000000000000000815260040161180d9190611dbf565b60405180910390fd5b505b6040517f08c379a000000000000000000000000000000000000000000000000000000000815260040161184a90613020565b60405180910390fd5b63bc197c8160e01b7bffffffffffffffffffffffffffffffffffffffffffffffffffffffff1916817bffffffffffffffffffffffffffffffffffffffffffffffffffffffff1916146118da576040517f08c379a00000000000000000000000000000000000000000000000000000000081526004016118d1906130b2565b60405180910390fd5b505b505050505050565b60606000600167ffffffffffffffff81111561190357611902611de6565b5b6040519080825280602002602001820160405280156119315781602001602082028036833780820191505090505b50905082816000815181106119495761194861274e565b5b60200260200101818152505080915050919050565b61197d8473ffffffffffffffffffffffffffffffffffffffff16610a06565b15611b2d578373ffffffffffffffffffffffffffffffffffffffff1663f23a6e6187878686866040518663ffffffff1660e01b81526004016119c39594939291906130d2565b6020604051808303816000875af19250505080156119ff57506040513d601f19601f820116820180604052508101906119fc9190612ec2565b60015b611aa457611a0b612efc565b806308c379a003611a675750611a1f612f1e565b80611a2a5750611a69565b806040517f08c379a0000000000000000000000000000000000000000000000000000000008152600401611a5e9190611dbf565b60405180910390fd5b505b6040517f08c379a0000000000000000000000000000000000000000000000000000000008152600401611a9b90613020565b60405180910390fd5b63f23a6e6160e01b7bffffffffffffffffffffffffffffffffffffffffffffffffffffffff1916817bffffffffffffffffffffffffffffffffffffffffffffffffffffffff191614611b2b576040517f08c379a0000000000000000000000000000000000000000000000000000000008152600401611b22906130b2565b60405180910390fd5b505b505050505050565b6000604051905090565b600080fd5b600080fd5b600073ffffffffffffffffffffffffffffffffffffffff82169050919050565b6000611b7482611b49565b9050919050565b611b8481611b69565b8114611b8f57600080fd5b50565b600081359050611ba181611b7b565b92915050565b6000819050919050565b611bba81611ba7565b8114611bc557600080fd5b50565b600081359050611bd781611bb1565b92915050565b60008060408385031215611bf457611bf3611b3f565b5b6000611c0285828601611b92565b9250506020611c1385828601611bc8565b9150509250929050565b611c2681611ba7565b82525050565b6000602082019050611c416000830184611c1d565b92915050565b60007fffffffff0000000000000000000000000000000000000000000000000000000082169050919050565b611c7c81611c47565b8114611c8757600080fd5b50565b600081359050611c9981611c73565b92915050565b600060208284031215611cb557611cb4611b3f565b5b6000611cc384828501611c8a565b91505092915050565b60008115159050919050565b611ce181611ccc565b82525050565b6000602082019050611cfc6000830184611cd8565b92915050565b600060208284031215611d1857611d17611b3f565b5b6000611d2684828501611bc8565b91505092915050565b600081519050919050565b600082825260208201905092915050565b60005b83811015611d69578082015181840152602081019050611d4e565b60008484015250505050565b6000601f19601f8301169050919050565b6000611d9182611d2f565b611d9b8185611d3a565b9350611dab818560208601611d4b565b611db481611d75565b840191505092915050565b60006020820190508181036000830152611dd98184611d86565b905092915050565b600080fd5b7f4e487b7100000000000000000000000000000000000000000000000000000000600052604160045260246000fd5b611e1e82611d75565b810181811067ffffffffffffffff82111715611e3d57611e3c611de6565b5b80604052505050565b6000611e50611b35565b9050611e5c8282611e15565b919050565b600067ffffffffffffffff821115611e7c57611e7b611de6565b5b602082029050602081019050919050565b600080fd5b6000611ea5611ea084611e61565b611e46565b90508083825260208201905060208402830185811115611ec857611ec7611e8d565b5b835b81811015611ef15780611edd8882611bc8565b845260208401935050602081019050611eca565b5050509392505050565b600082601f830112611f1057611f0f611de1565b5b8135611f20848260208601611e92565b91505092915050565b600080fd5b600067ffffffffffffffff821115611f4957611f48611de6565b5b611f5282611d75565b9050602081019050919050565b82818337600083830152505050565b6000611f81611f7c84611f2e565b611e46565b905082815260208101848484011115611f9d57611f9c611f29565b5b611fa8848285611f5f565b509392505050565b600082601f830112611fc557611fc4611de1565b5b8135611fd5848260208601611f6e565b91505092915050565b600080600080600060a08688031215611ffa57611ff9611b3f565b5b600061200888828901611b92565b955050602061201988828901611b92565b945050604086013567ffffffffffffffff81111561203a57612039611b44565b5b61204688828901611efb565b935050606086013567ffffffffffffffff81111561206757612066611b44565b5b61207388828901611efb565b925050608086013567ffffffffffffffff81111561209457612093611b44565b5b6120a088828901611fb0565b9150509295509295909350565b600067ffffffffffffffff8211156120c8576120c7611de6565b5b602082029050602081019050919050565b60006120ec6120e7846120ad565b611e46565b9050808382526020820190506020840283018581111561210f5761210e611e8d565b5b835b8181101561213857806121248882611b92565b845260208401935050602081019050612111565b5050509392505050565b600082601f83011261215757612156611de1565b5b81356121678482602086016120d9565b91505092915050565b6000806040838503121561218757612186611b3f565b5b600083013567ffffffffffffffff8111156121a5576121a4611b44565b5b6121b185828601612142565b925050602083013567ffffffffffffffff8111156121d2576121d1611b44565b5b6121de85828601611efb565b9150509250929050565b600081519050919050565b600082825260208201905092915050565b6000819050602082019050919050565b61221d81611ba7565b82525050565b600061222f8383612214565b60208301905092915050565b6000602082019050919050565b6000612253826121e8565b61225d81856121f3565b935061226883612204565b8060005b838110156122995781516122808882612223565b975061228b8361223b565b92505060018101905061226c565b5085935050505092915050565b600060208201905081810360008301526122c08184612248565b905092915050565b600080600080608085870312156122e2576122e1611b3f565b5b60006122f087828801611b92565b945050602061230187828801611bc8565b935050604061231287828801611bc8565b925050606085013567ffffffffffffffff81111561233357612332611b44565b5b61233f87828801611fb0565b91505092959194509250565b61235481611b69565b82525050565b600060208201905061236f600083018461234b565b92915050565b61237e81611ccc565b811461238957600080fd5b50565b60008135905061239b81612375565b92915050565b600080604083850312156123b8576123b7611b3f565b5b60006123c685828601611b92565b92505060206123d78582860161238c565b9150509250929050565b600080604083850312156123f8576123f7611b3f565b5b600061240685828601611b92565b925050602061241785828601611b92565b9150509250929050565b600080600080600060a0868803121561243d5761243c611b3f565b5b600061244b88828901611b92565b955050602061245c88828901611b92565b945050604061246d88828901611bc8565b935050606061247e88828901611bc8565b925050608086013567ffffffffffffffff81111561249f5761249e611b44565b5b6124ab88828901611fb0565b9150509295509295909350565b6000602082840312156124ce576124cd611b3f565b5b60006124dc84828501611b92565b91505092915050565b6000806000606084860312156124fe576124fd611b3f565b5b600061250c86828701611b92565b935050602061251d86828701611bc8565b925050604061252e86828701611bc8565b9150509250925092565b7f455243313135353a2061646472657373207a65726f206973206e6f742061207660008201527f616c6964206f776e657200000000000000000000000000000000000000000000602082015250565b6000612594602a83611d3a565b915061259f82612538565b604082019050919050565b600060208201905081810360008301526125c381612587565b9050919050565b7f4e487b7100000000000000000000000000000000000000000000000000000000600052602260045260246000fd5b6000600282049050600182168061261157607f821691505b602082108103612624576126236125ca565b5b50919050565b7f455243313135353a2063616c6c6572206973206e6f7420746f6b656e206f776e60008201527f6572206f7220617070726f766564000000000000000000000000000000000000602082015250565b6000612686602e83611d3a565b91506126918261262a565b604082019050919050565b600060208201905081810360008301526126b581612679565b9050919050565b7f455243313135353a206163636f756e747320616e6420696473206c656e67746860008201527f206d69736d617463680000000000000000000000000000000000000000000000602082015250565b6000612718602983611d3a565b9150612723826126bc565b604082019050919050565b600060208201905081810360008301526127478161270b565b9050919050565b7f4e487b7100000000000000000000000000000000000000000000000000000000600052603260045260246000fd5b7f4e487b7100000000000000000000000000000000000000000000000000000000600052601160045260246000fd5b60006127b782611ba7565b91507fffffffffffffffffffffffffffffffffffffffffffffffffffffffffffffffff82036127e9576127e861277d565b5b600182019050919050565b7f4f776e61626c653a206e6577206f776e657220697320746865207a65726f206160008201527f6464726573730000000000000000000000000000000000000000000000000000602082015250565b6000612850602683611d3a565b915061285b826127f4565b604082019050919050565b6000602082019050818103600083015261287f81612843565b9050919050565b7f43616c6c6572206973206e6f74206f776e6572206e6f72206163636f756e7400600082015250565b60006128bc601f83611d3a565b91506128c782612886565b602082019050919050565b600060208201905081810360008301526128eb816128af565b9050919050565b7f455243313135353a2069647320616e6420616d6f756e7473206c656e6774682060008201527f6d69736d61746368000000000000000000000000000000000000000000000000602082015250565b600061294e602883611d3a565b9150612959826128f2565b604082019050919050565b6000602082019050818103600083015261297d81612941565b9050919050565b7f455243313135353a207472616e7366657220746f20746865207a65726f20616460008201527f6472657373000000000000000000000000000000000000000000000000000000602082015250565b60006129e0602583611d3a565b91506129eb82612984565b604082019050919050565b60006020820190508181036000830152612a0f816129d3565b9050919050565b7f455243313135353a20696e73756666696369656e742062616c616e636520666f60008201527f72207472616e7366657200000000000000000000000000000000000000000000602082015250565b6000612a72602a83611d3a565b9150612a7d82612a16565b604082019050919050565b60006020820190508181036000830152612aa181612a65565b9050919050565b6000612ab382611ba7565b9150612abe83611ba7565b9250828201905080821115612ad657612ad561277d565b5b92915050565b60006040820190508181036000830152612af68185612248565b90508181036020830152612b0a8184612248565b90509392505050565b7f4f776e61626c653a2063616c6c6572206973206e6f7420746865206f776e6572600082015250565b6000612b49602083611d3a565b9150612b5482612b13565b602082019050919050565b60006020820190508181036000830152612b7881612b3c565b9050919050565b7f455243313135353a206d696e7420746f20746865207a65726f2061646472657360008201527f7300000000000000000000000000000000000000000000000000000000000000602082015250565b6000612bdb602183611d3a565b9150612be682612b7f565b604082019050919050565b60006020820190508181036000830152612c0a81612bce565b9050919050565b6000604082019050612c266000830185611c1d565b612c336020830184611c1d565b9392505050565b7f455243313135353a2073657474696e6720617070726f76616c2073746174757360008201527f20666f722073656c660000000000000000000000000000000000000000000000602082015250565b6000612c96602983611d3a565b9150612ca182612c3a565b604082019050919050565b60006020820190508181036000830152612cc581612c89565b9050919050565b7f455243313135353a206275726e2066726f6d20746865207a65726f206164647260008201527f6573730000000000000000000000000000000000000000000000000000000000602082015250565b6000612d28602383611d3a565b9150612d3382612ccc565b604082019050919050565b60006020820190508181036000830152612d5781612d1b565b9050919050565b7f455243313135353a206275726e20616d6f756e7420657863656564732062616c60008201527f616e636500000000000000000000000000000000000000000000000000000000602082015250565b6000612dba602483611d3a565b9150612dc582612d5e565b604082019050919050565b60006020820190508181036000830152612de981612dad565b9050919050565b600081519050919050565b600082825260208201905092915050565b6000612e1782612df0565b612e218185612dfb565b9350612e31818560208601611d4b565b612e3a81611d75565b840191505092915050565b600060a082019050612e5a600083018861234b565b612e67602083018761234b565b8181036040830152612e798186612248565b90508181036060830152612e8d8185612248565b90508181036080830152612ea18184612e0c565b90509695505050505050565b600081519050612ebc81611c73565b92915050565b600060208284031215612ed857612ed7611b3f565b5b6000612ee684828501612ead565b91505092915050565b60008160e01c9050919050565b600060033d1115612f1b5760046000803e612f18600051612eef565b90505b90565b600060443d10612fab57612f30611b35565b60043d036004823e80513d602482011167ffffffffffffffff82111715612f58575050612fab565b808201805167ffffffffffffffff811115612f765750505050612fab565b80602083010160043d038501811115612f93575050505050612fab565b612fa282602001850186611e15565b82955050505050505b90565b7f455243313135353a207472616e7366657220746f206e6f6e2d4552433131353560008201527f526563656976657220696d706c656d656e746572000000000000000000000000602082015250565b600061300a603483611d3a565b915061301582612fae565b604082019050919050565b6000602082019050818103600083015261303981612ffd565b9050919050565b7f455243313135353a204552433131353552656365697665722072656a6563746560008201527f6420746f6b656e73000000000000000000000000000000000000000000000000602082015250565b600061309c602883611d3a565b91506130a782613040565b604082019050919050565b600060208201905081810360008301526130cb8161308f565b9050919050565b600060a0820190506130e7600083018861234b565b6130f4602083018761234b565b6131016040830186611c1d565b61310e6060830185611c1d565b81810360808301526131208184612e0c565b9050969550505050505056fea2646970667358221220d41a88e58803ab9bf8f20b7094a039798cec16b89555b825839109dc7cb5467864736f6c6343000811003368747470733a2f2f6578616d706c652e636f6d2f746f6b656e2f7b69647d2e6a736f6e",
  "immutableReferences": {},
  "source": "// SPDX-License-Identifier: MIT\r\n\r\npragma solidity ^0.8.0;\r\n\r\nimport \"@openzeppelin/contracts/token/ERC1155/ERC1155.sol\";\r\nimport \"@openzeppelin/contracts/access/Ownable.sol\";\r\n\r\ncontract GamingAssetOwnership is ERC1155, Ownable {\r\n    uint256 public constant GOLD = 0;\r\n    uint256 public constant SILVER = 1;\r\n    uint256 public constant BRONZE = 2;\r\n\r\n    constructor() ERC1155(\"https://example.com/token/{id}.json\") {\r\n        _mint(msg.sender, GOLD, 10**18, \"\");\r\n        _mint(msg.sender, SILVER, 10**27, \"\");\r\n        _mint(msg.sender, BRONZE, 10**36, \"\");\r\n    }\r\n\r\n    function mint(address account, uint256 id, uint256 amount, bytes memory data) public onlyOwner {\r\n        _mint(account, id, amount, data);\r\n    }\r\n\r\n    function burn(address account, uint256 id, uint256 amount) public {\r\n        require(msg.sender == account || msg.sender == owner(), \"Caller is not owner nor account\");\r\n        _burn(account, id, amount);\r\n    }\r\n}\r\n",
  "sourcePath": "C:\\Users\\jaida\\Desktop\\smart contract project 2010\\contracts\\GamingAssetOwnership.sol",
  "compiler": {
    "name": "solc",
    "version": "0.8.17+commit.8df45f5f.Emscripten.clang"
  },
  "schemaVersion": "3.4.10",
  "updatedAt": "2023-03-30T23:44:37.074Z",
  "devdoc": {
    "kind": "dev",
    "methods": {
      "balanceOf(address,uint256)": {
        "details": "See {IERC1155-balanceOf}. Requirements: - `account` cannot be the zero address."
      },
      "balanceOfBatch(address[],uint256[])": {
        "details": "See {IERC1155-balanceOfBatch}. Requirements: - `accounts` and `ids` must have the same length."
      },
      "isApprovedForAll(address,address)": {
        "details": "See {IERC1155-isApprovedForAll}."
      },
      "owner()": {
        "details": "Returns the address of the current owner."
      },
      "renounceOwnership()": {
        "details": "Leaves the contract without owner. It will not be possible to call `onlyOwner` functions anymore. Can only be called by the current owner. NOTE: Renouncing ownership will leave the contract without an owner, thereby removing any functionality that is only available to the owner."
      },
      "safeBatchTransferFrom(address,address,uint256[],uint256[],bytes)": {
        "details": "See {IERC1155-safeBatchTransferFrom}."
      },
      "safeTransferFrom(address,address,uint256,uint256,bytes)": {
        "details": "See {IERC1155-safeTransferFrom}."
      },
      "setApprovalForAll(address,bool)": {
        "details": "See {IERC1155-setApprovalForAll}."
      },
      "supportsInterface(bytes4)": {
        "details": "See {IERC165-supportsInterface}."
      },
      "transferOwnership(address)": {
        "details": "Transfers ownership of the contract to a new account (`newOwner`). Can only be called by the current owner."
      },
      "uri(uint256)": {
        "details": "See {IERC1155MetadataURI-uri}. This implementation returns the same URI for *all* token types. It relies on the token type ID substitution mechanism https://eips.ethereum.org/EIPS/eip-1155#metadata[defined in the EIP]. Clients calling this function must replace the `\\{id\\}` substring with the actual token type ID."
      }
    },
    "version": 1
  },
  "userdoc": {
    "kind": "user",
    "methods": {},
    "version": 1
  }
}